{
  "_format": "hh-sol-artifact-1",
  "contractName": "AMM",
  "sourceName": "contracts/AMM.sol",
  "abi": [
    {
      "inputs": [
        {
          "internalType": "address",
          "name": "_token1",
          "type": "address"
        },
        {
          "internalType": "address",
          "name": "_token2",
          "type": "address"
        }
      ],
      "stateMutability": "nonpayable",
      "type": "constructor"
    },
    {
      "inputs": [],
      "name": "AmountMustBeGreaterThanZero",
      "type": "error"
    },
    {
      "inputs": [],
      "name": "InsufficientLiquidity",
      "type": "error"
    },
    {
      "inputs": [],
      "name": "InvalidAddress",
      "type": "error"
    },
    {
      "inputs": [],
      "name": "InvalidAmounts",
      "type": "error"
    },
    {
      "inputs": [],
      "name": "InvalidReserves",
      "type": "error"
    },
    {
      "inputs": [
        {
          "internalType": "address",
          "name": "owner",
          "type": "address"
        }
      ],
      "name": "OwnableInvalidOwner",
      "type": "error"
    },
    {
      "inputs": [
        {
          "internalType": "address",
          "name": "account",
          "type": "address"
        }
      ],
      "name": "OwnableUnauthorizedAccount",
      "type": "error"
    },
    {
      "inputs": [],
      "name": "ReentrancyGuardReentrantCall",
      "type": "error"
    },
    {
      "inputs": [],
      "name": "SlippageExceeded",
      "type": "error"
    },
    {
      "anonymous": false,
      "inputs": [
        {
          "indexed": true,
          "internalType": "address",
          "name": "provider",
          "type": "address"
        },
        {
          "indexed": true,
          "internalType": "uint256",
          "name": "amount1",
          "type": "uint256"
        },
        {
          "indexed": true,
          "internalType": "uint256",
          "name": "amount2",
          "type": "uint256"
        }
      ],
      "name": "LiquidityProvided",
      "type": "event"
    },
    {
      "anonymous": false,
      "inputs": [
        {
          "indexed": true,
          "internalType": "address",
          "name": "provider",
          "type": "address"
        },
        {
          "indexed": true,
          "internalType": "uint256",
          "name": "amount1",
          "type": "uint256"
        },
        {
          "indexed": true,
          "internalType": "uint256",
          "name": "amount2",
          "type": "uint256"
        }
      ],
      "name": "LiquidityRemoved",
      "type": "event"
    },
    {
      "anonymous": false,
      "inputs": [
        {
          "indexed": true,
          "internalType": "address",
          "name": "previousOwner",
          "type": "address"
        },
        {
          "indexed": true,
          "internalType": "address",
          "name": "newOwner",
          "type": "address"
        }
      ],
      "name": "OwnershipTransferred",
      "type": "event"
    },
    {
      "anonymous": false,
      "inputs": [
        {
          "indexed": true,
          "internalType": "address",
          "name": "swapper",
          "type": "address"
        },
        {
          "indexed": true,
          "internalType": "address",
          "name": "tokenIn",
          "type": "address"
        },
        {
          "indexed": true,
          "internalType": "address",
          "name": "tokenOut",
          "type": "address"
        },
        {
          "indexed": false,
          "internalType": "uint256",
          "name": "amountIn",
          "type": "uint256"
        },
        {
          "indexed": false,
          "internalType": "uint256",
          "name": "amountOut",
          "type": "uint256"
        }
      ],
      "name": "Swapped",
      "type": "event"
    },
    {
      "inputs": [
        {
          "internalType": "address",
          "name": "user",
          "type": "address"
        },
        {
          "internalType": "uint256",
          "name": "percentInWei",
          "type": "uint256"
        }
      ],
      "name": "calculateUserLiquidityWithdrawal",
      "outputs": [
        {
          "internalType": "uint256",
          "name": "token1Amount",
          "type": "uint256"
        },
        {
          "internalType": "uint256",
          "name": "token2Amount",
          "type": "uint256"
        }
      ],
      "stateMutability": "view",
      "type": "function"
    },
    {
      "inputs": [],
      "name": "getCurrentPrices",
      "outputs": [
        {
          "internalType": "uint256",
          "name": "priceToken1InToken2",
          "type": "uint256"
        },
        {
          "internalType": "uint256",
          "name": "priceToken2InToken1",
          "type": "uint256"
        }
      ],
      "stateMutability": "view",
      "type": "function"
    },
    {
      "inputs": [
        {
          "internalType": "address",
          "name": "tokenIn",
          "type": "address"
        },
        {
          "internalType": "uint256",
          "name": "amount",
          "type": "uint256"
        }
      ],
      "name": "getRequiredTokenAmount",
      "outputs": [
        {
          "internalType": "uint256",
          "name": "amountRequired",
          "type": "uint256"
        }
      ],
      "stateMutability": "view",
      "type": "function"
    },
    {
      "inputs": [
        {
          "internalType": "address",
          "name": "tokenIn",
          "type": "address"
        },
        {
          "internalType": "uint256",
          "name": "amountIn",
          "type": "uint256"
        }
      ],
      "name": "getSwapDetails",
      "outputs": [
        {
          "internalType": "uint256",
          "name": "amountOut",
          "type": "uint256"
        },
        {
          "internalType": "uint256",
          "name": "fee",
          "type": "uint256"
        },
        {
          "internalType": "uint256",
          "name": "newPrice",
          "type": "uint256"
        }
      ],
      "stateMutability": "view",
      "type": "function"
    },
    {
      "inputs": [
        {
          "internalType": "address",
          "name": "user",
          "type": "address"
        }
      ],
      "name": "getUserLiquidity",
      "outputs": [
        {
          "internalType": "uint256",
          "name": "token1Amount",
          "type": "uint256"
        },
        {
          "internalType": "uint256",
          "name": "token2Amount",
          "type": "uint256"
        }
      ],
      "stateMutability": "view",
      "type": "function"
    },
    {
      "inputs": [
        {
          "internalType": "address",
          "name": "",
          "type": "address"
        }
      ],
      "name": "liquidity",
      "outputs": [
        {
          "internalType": "uint256",
          "name": "",
          "type": "uint256"
        }
      ],
      "stateMutability": "view",
      "type": "function"
    },
    {
      "inputs": [],
      "name": "owner",
      "outputs": [
        {
          "internalType": "address",
          "name": "",
          "type": "address"
        }
      ],
      "stateMutability": "view",
      "type": "function"
    },
    {
      "inputs": [
        {
          "internalType": "address",
          "name": "tokenIn",
          "type": "address"
        },
        {
          "internalType": "uint256",
          "name": "amountIn",
          "type": "uint256"
        }
      ],
      "name": "provideLiquidity",
      "outputs": [],
      "stateMutability": "nonpayable",
      "type": "function"
    },
    {
      "inputs": [
        {
          "internalType": "uint256",
          "name": "liquidityAmount",
          "type": "uint256"
        }
      ],
      "name": "removeLiquidity",
      "outputs": [],
      "stateMutability": "nonpayable",
      "type": "function"
    },
    {
      "inputs": [],
      "name": "renounceOwnership",
      "outputs": [],
      "stateMutability": "nonpayable",
      "type": "function"
    },
    {
      "inputs": [
        {
          "internalType": "address",
          "name": "tokenIn",
          "type": "address"
        },
        {
          "internalType": "uint256",
          "name": "amountIn",
          "type": "uint256"
        },
        {
          "internalType": "uint256",
          "name": "minAmountOut",
          "type": "uint256"
        }
      ],
      "name": "swap",
      "outputs": [
        {
          "internalType": "uint256",
          "name": "amountOut",
          "type": "uint256"
        },
        {
          "internalType": "uint256",
          "name": "fee",
          "type": "uint256"
        }
      ],
      "stateMutability": "nonpayable",
      "type": "function"
    },
    {
      "inputs": [],
      "name": "swapFee",
      "outputs": [
        {
          "internalType": "uint256",
          "name": "",
          "type": "uint256"
        }
      ],
      "stateMutability": "view",
      "type": "function"
    },
    {
      "inputs": [],
      "name": "token1",
      "outputs": [
        {
          "internalType": "contract IERC20",
          "name": "",
          "type": "address"
        }
      ],
      "stateMutability": "view",
      "type": "function"
    },
    {
      "inputs": [],
      "name": "token2",
      "outputs": [
        {
          "internalType": "contract IERC20",
          "name": "",
          "type": "address"
        }
      ],
      "stateMutability": "view",
      "type": "function"
    },
    {
      "inputs": [],
      "name": "totalLiquidity",
      "outputs": [
        {
          "internalType": "uint256",
          "name": "",
          "type": "uint256"
        }
      ],
      "stateMutability": "view",
      "type": "function"
    },
    {
      "inputs": [
        {
          "internalType": "address",
          "name": "newOwner",
          "type": "address"
        }
      ],
      "name": "transferOwnership",
      "outputs": [],
      "stateMutability": "nonpayable",
      "type": "function"
    }
  ],
  "bytecode": "0x60c06040523480156200001157600080fd5b506040516200254e3803806200254e833981810160405281019062000037919062000316565b336001600081905550600073ffffffffffffffffffffffffffffffffffffffff168173ffffffffffffffffffffffffffffffffffffffff1603620000b55760006040517f1e4fbdf7000000000000000000000000000000000000000000000000000000008152600401620000ac91906200036e565b60405180910390fd5b620000c681620001e660201b60201c565b50600073ffffffffffffffffffffffffffffffffffffffff168273ffffffffffffffffffffffffffffffffffffffff1614806200012f5750600073ffffffffffffffffffffffffffffffffffffffff168173ffffffffffffffffffffffffffffffffffffffff16145b1562000167576040517fe6c4247b00000000000000000000000000000000000000000000000000000000815260040160405180910390fd5b8173ffffffffffffffffffffffffffffffffffffffff1660808173ffffffffffffffffffffffffffffffffffffffff16815250508073ffffffffffffffffffffffffffffffffffffffff1660a08173ffffffffffffffffffffffffffffffffffffffff1681525050670de0b6b3a764000060038190555050506200038b565b6000600160009054906101000a900473ffffffffffffffffffffffffffffffffffffffff16905081600160006101000a81548173ffffffffffffffffffffffffffffffffffffffff021916908373ffffffffffffffffffffffffffffffffffffffff1602179055508173ffffffffffffffffffffffffffffffffffffffff168173ffffffffffffffffffffffffffffffffffffffff167f8be0079c531659141344cd1fd0a4f28419497f9722a3daafe3b4186f6b6457e060405160405180910390a35050565b600080fd5b600073ffffffffffffffffffffffffffffffffffffffff82169050919050565b6000620002de82620002b1565b9050919050565b620002f081620002d1565b8114620002fc57600080fd5b50565b6000815190506200031081620002e5565b92915050565b6000806040838503121562000330576200032f620002ac565b5b60006200034085828601620002ff565b92505060206200035385828601620002ff565b9150509250929050565b6200036881620002d1565b82525050565b60006020820190506200038560008301846200035d565b92915050565b60805160a051612118620004366000396000818161047601528181610537015281816109d601528181610bf101528181610ebe0152818161107d0152818161153a015281816119350152818161195f01526119b20152600081816103c20152818161093801528181610aba01528181610b5301528181610e0801528181610fde0152818161140301528181611486015281816118c10152818161191401526119d301526121186000f3fe608060405234801561001057600080fd5b50600436106101005760003560e01c80638da5cb5b11610097578063d21220a711610066578063d21220a7146102a0578063dbbdd935146102be578063df51abef146102ef578063f2fde38b1461032157610100565b80638da5cb5b146102055780639c8f9f23146102235780639f1d0f591461023f578063b8c876b11461027057610100565b80635fea6120116100d35780635fea612014610190578063715018a6146101ac5780637bce97ee146101b6578063852d0d6e146101e657610100565b80630b6bca301461010557806315770f921461013657806325be124e1461015457806354cf2aeb14610172575b600080fd5b61011f600480360381019061011a9190611c87565b61033d565b60405161012d929190611cd6565b60405180910390f35b61013e61052f565b60405161014b9190611cff565b60405180910390f35b61015c610535565b6040516101699190611d79565b60405180910390f35b61017a610559565b6040516101879190611cff565b60405180910390f35b6101aa60048036038101906101a59190611c87565b61055f565b005b6101b46108e3565b005b6101d060048036038101906101cb9190611c87565b6108f7565b6040516101dd9190611cff565b60405180910390f35b6101ee610b4c565b6040516101fc929190611cd6565b60405180910390f35b61020d610d1b565b60405161021a9190611da3565b60405180910390f35b61023d60048036038101906102389190611dbe565b610d45565b005b61025960048036038101906102549190611deb565b61116d565b604051610267929190611cd6565b60405180910390f35b61028a60048036038101906102859190611e3e565b6113e9565b6040516102979190611cff565b60405180910390f35b6102a8611401565b6040516102b59190611d79565b60405180910390f35b6102d860048036038101906102d39190611e3e565b611425565b6040516102e6929190611cd6565b60405180910390f35b61030960048036038101906103049190611c87565b6115f0565b60405161031893929190611e6b565b60405180910390f35b61033b60048036038101906103369190611e3e565b6117f0565b005b6000806000600460008673ffffffffffffffffffffffffffffffffffffffff1673ffffffffffffffffffffffffffffffffffffffff16815260200190815260200160002054905060008103610399576000809250925050610528565b600068056bc75e2d6310000085836103b19190611ed1565b6103bb9190611f42565b90506002547f000000000000000000000000000000000000000000000000000000000000000073ffffffffffffffffffffffffffffffffffffffff166370a08231306040518263ffffffff1660e01b81526004016104199190611da3565b602060405180830381865afa158015610436573d6000803e3d6000fd5b505050506040513d601f19601f8201168201806040525081019061045a9190611f88565b826104659190611ed1565b61046f9190611f42565b93506002547f000000000000000000000000000000000000000000000000000000000000000073ffffffffffffffffffffffffffffffffffffffff166370a08231306040518263ffffffff1660e01b81526004016104cd9190611da3565b602060405180830381865afa1580156104ea573d6000803e3d6000fd5b505050506040513d601f19601f8201168201806040525081019061050e9190611f88565b826105199190611ed1565b6105239190611f42565b925050505b9250929050565b60025481565b7f000000000000000000000000000000000000000000000000000000000000000081565b60035481565b610567611876565b80600081036105a2576040517f5e85ae7300000000000000000000000000000000000000000000000000000000815260040160405180910390fd5b6000806105ae856118bc565b9150915060008273ffffffffffffffffffffffffffffffffffffffff166370a08231306040518263ffffffff1660e01b81526004016105ed9190611da3565b602060405180830381865afa15801561060a573d6000803e3d6000fd5b505050506040513d601f19601f8201168201806040525081019061062e9190611f88565b905060008273ffffffffffffffffffffffffffffffffffffffff166370a08231306040518263ffffffff1660e01b815260040161066b9190611da3565b602060405180830381865afa158015610688573d6000803e3d6000fd5b505050506040513d601f19601f820116820180604052508101906106ac9190611f88565b90506000808314806106be5750600082145b156106cb578690506106d8565b6106d588886108f7565b90505b8473ffffffffffffffffffffffffffffffffffffffff166323b872dd33308a6040518463ffffffff1660e01b815260040161071593929190611fb5565b6020604051808303816000875af1158015610734573d6000803e3d6000fd5b505050506040513d601f19601f820116820180604052508101906107589190612024565b508373ffffffffffffffffffffffffffffffffffffffff166323b872dd3330846040518463ffffffff1660e01b815260040161079693929190611fb5565b6020604051808303816000875af11580156107b5573d6000803e3d6000fd5b505050506040513d601f19601f820116820180604052508101906107d99190612024565b5060008060025403610800576107f982896107f49190611ed1565b611a32565b905061081c565b836002548961080f9190611ed1565b6108199190611f42565b90505b80600460003373ffffffffffffffffffffffffffffffffffffffff1673ffffffffffffffffffffffffffffffffffffffff168152602001908152602001600020600082825461086b9190612051565b9250508190555080600260008282546108849190612051565b9250508190555081883373ffffffffffffffffffffffffffffffffffffffff167f4da600077ef1c533c6fc47d886b74f8eb10195c987edfc00c907a2e184a0279460405160405180910390a4505050505050506108df611a8f565b5050565b6108eb611a99565b6108f56000611b20565b565b60008160008103610934576040517f5e85ae7300000000000000000000000000000000000000000000000000000000815260040160405180910390fd5b60007f000000000000000000000000000000000000000000000000000000000000000073ffffffffffffffffffffffffffffffffffffffff166370a08231306040518263ffffffff1660e01b815260040161098f9190611da3565b602060405180830381865afa1580156109ac573d6000803e3d6000fd5b505050506040513d601f19601f820116820180604052508101906109d09190611f88565b905060007f000000000000000000000000000000000000000000000000000000000000000073ffffffffffffffffffffffffffffffffffffffff166370a08231306040518263ffffffff1660e01b8152600401610a2d9190611da3565b602060405180830381865afa158015610a4a573d6000803e3d6000fd5b505050506040513d601f19601f82011682018060405250810190610a6e9190611f88565b9050600082111580610a81575060008111155b15610ab8576040517f7b9c891600000000000000000000000000000000000000000000000000000000815260040160405180910390fd5b7f000000000000000000000000000000000000000000000000000000000000000073ffffffffffffffffffffffffffffffffffffffff168673ffffffffffffffffffffffffffffffffffffffff1603610b2957818186610b189190611ed1565b610b229190611f42565b9350610b43565b808286610b369190611ed1565b610b409190611f42565b93505b50505092915050565b60008060007f000000000000000000000000000000000000000000000000000000000000000073ffffffffffffffffffffffffffffffffffffffff166370a08231306040518263ffffffff1660e01b8152600401610baa9190611da3565b602060405180830381865afa158015610bc7573d6000803e3d6000fd5b505050506040513d601f19601f82011682018060405250810190610beb9190611f88565b905060007f000000000000000000000000000000000000000000000000000000000000000073ffffffffffffffffffffffffffffffffffffffff166370a08231306040518263ffffffff1660e01b8152600401610c489190611da3565b602060405180830381865afa158015610c65573d6000803e3d6000fd5b505050506040513d601f19601f82011682018060405250810190610c899190611f88565b9050600082111580610c9c575060008111155b15610cd3576040517f7b9c891600000000000000000000000000000000000000000000000000000000815260040160405180910390fd5b81670de0b6b3a764000082610ce89190611ed1565b610cf29190611f42565b935080670de0b6b3a764000083610d099190611ed1565b610d139190611f42565b925050509091565b6000600160009054906101000a900473ffffffffffffffffffffffffffffffffffffffff16905090565b610d4d611876565b8060008103610d88576040517f5e85ae7300000000000000000000000000000000000000000000000000000000815260040160405180910390fd5b81600460003373ffffffffffffffffffffffffffffffffffffffff1673ffffffffffffffffffffffffffffffffffffffff168152602001908152602001600020541015610e01576040517fbb55fd2700000000000000000000000000000000000000000000000000000000815260040160405180910390fd5b60006002547f000000000000000000000000000000000000000000000000000000000000000073ffffffffffffffffffffffffffffffffffffffff166370a08231306040518263ffffffff1660e01b8152600401610e5f9190611da3565b602060405180830381865afa158015610e7c573d6000803e3d6000fd5b505050506040513d601f19601f82011682018060405250810190610ea09190611f88565b84610eab9190611ed1565b610eb59190611f42565b905060006002547f000000000000000000000000000000000000000000000000000000000000000073ffffffffffffffffffffffffffffffffffffffff166370a08231306040518263ffffffff1660e01b8152600401610f159190611da3565b602060405180830381865afa158015610f32573d6000803e3d6000fd5b505050506040513d601f19601f82011682018060405250810190610f569190611f88565b85610f619190611ed1565b610f6b9190611f42565b905083600460003373ffffffffffffffffffffffffffffffffffffffff1673ffffffffffffffffffffffffffffffffffffffff1681526020019081526020016000206000828254610fbc9190612085565b925050819055508360026000828254610fd59190612085565b925050819055507f000000000000000000000000000000000000000000000000000000000000000073ffffffffffffffffffffffffffffffffffffffff1663a9059cbb33846040518363ffffffff1660e01b81526004016110379291906120b9565b6020604051808303816000875af1158015611056573d6000803e3d6000fd5b505050506040513d601f19601f8201168201806040525081019061107a9190612024565b507f000000000000000000000000000000000000000000000000000000000000000073ffffffffffffffffffffffffffffffffffffffff1663a9059cbb33836040518363ffffffff1660e01b81526004016110d69291906120b9565b6020604051808303816000875af11580156110f5573d6000803e3d6000fd5b505050506040513d601f19601f820116820180604052508101906111199190612024565b5080823373ffffffffffffffffffffffffffffffffffffffff167f96cd817c6329656790ef8fba7675405193677d39619571282f5e21f3a98cd05960405160405180910390a450505061116a611a8f565b50565b600080611178611876565b838360008214806111895750600081145b156111c0576040517f5e85ae7300000000000000000000000000000000000000000000000000000000815260040160405180910390fd5b858511156111fa576040517fd856fc5a00000000000000000000000000000000000000000000000000000000815260040160405180910390fd5b61120487876115f0565b50809450819550505084841015611247576040517f8199f5f300000000000000000000000000000000000000000000000000000000815260040160405180910390fd5b600080611253896118bc565b915091508173ffffffffffffffffffffffffffffffffffffffff166323b872dd33308b6040518463ffffffff1660e01b815260040161129493929190611fb5565b6020604051808303816000875af11580156112b3573d6000803e3d6000fd5b505050506040513d601f19601f820116820180604052508101906112d79190612024565b508073ffffffffffffffffffffffffffffffffffffffff1663a9059cbb33886040518363ffffffff1660e01b81526004016113139291906120b9565b6020604051808303816000875af1158015611332573d6000803e3d6000fd5b505050506040513d601f19601f820116820180604052508101906113569190612024565b508073ffffffffffffffffffffffffffffffffffffffff168973ffffffffffffffffffffffffffffffffffffffff163373ffffffffffffffffffffffffffffffffffffffff167f6782190c91d4a7e8ad2a867deed6ec0a970cab8ff137ae2bd4abd92b3810f4d38b8a6040516113cd929190611cd6565b60405180910390a4505050506113e1611a8f565b935093915050565b60046020528060005260406000206000915090505481565b7f000000000000000000000000000000000000000000000000000000000000000081565b6000806000600460008573ffffffffffffffffffffffffffffffffffffffff1673ffffffffffffffffffffffffffffffffffffffff168152602001908152602001600020549050600081036114815760008092509250506115eb565b6002547f000000000000000000000000000000000000000000000000000000000000000073ffffffffffffffffffffffffffffffffffffffff166370a08231306040518263ffffffff1660e01b81526004016114dd9190611da3565b602060405180830381865afa1580156114fa573d6000803e3d6000fd5b505050506040513d601f19601f8201168201806040525081019061151e9190611f88565b826115299190611ed1565b6115339190611f42565b92506002547f000000000000000000000000000000000000000000000000000000000000000073ffffffffffffffffffffffffffffffffffffffff166370a08231306040518263ffffffff1660e01b81526004016115919190611da3565b602060405180830381865afa1580156115ae573d6000803e3d6000fd5b505050506040513d601f19601f820116820180604052508101906115d29190611f88565b826115dd9190611ed1565b6115e79190611f42565b9150505b915091565b60008060008360008103611630576040517f5e85ae7300000000000000000000000000000000000000000000000000000000815260040160405180910390fd5b60008061163c886118bc565b9150915060008273ffffffffffffffffffffffffffffffffffffffff166370a08231306040518263ffffffff1660e01b815260040161167b9190611da3565b602060405180830381865afa158015611698573d6000803e3d6000fd5b505050506040513d601f19601f820116820180604052508101906116bc9190611f88565b905060008273ffffffffffffffffffffffffffffffffffffffff166370a08231306040518263ffffffff1660e01b81526004016116f99190611da3565b602060405180830381865afa158015611716573d6000803e3d6000fd5b505050506040513d601f19601f8201168201806040525081019061173a9190611f88565b905068056bc75e2d631000006003548a6117549190611ed1565b61175e9190611f42565b96506000878a61176e9190612085565b90506000828261177e9190611ed1565b90506000828561178e9190612051565b9050808261179c9190611f42565b9a5060008c866117ac9190612051565b905060008c866117bc9190612085565b905080670de0b6b3a7640000836117d39190611ed1565b6117dd9190611f42565b9a50505050505050505050509250925092565b6117f8611a99565b600073ffffffffffffffffffffffffffffffffffffffff168173ffffffffffffffffffffffffffffffffffffffff160361186a5760006040517f1e4fbdf70000000000000000000000000000000000000000000000000000000081526004016118619190611da3565b60405180910390fd5b61187381611b20565b50565b6002600054036118b2576040517f3ee5aeb500000000000000000000000000000000000000000000000000000000815260040160405180910390fd5b6002600081905550565b6000807f000000000000000000000000000000000000000000000000000000000000000073ffffffffffffffffffffffffffffffffffffffff168373ffffffffffffffffffffffffffffffffffffffff160361195d577f00000000000000000000000000000000000000000000000000000000000000007f000000000000000000000000000000000000000000000000000000000000000091509150611a2d565b7f000000000000000000000000000000000000000000000000000000000000000073ffffffffffffffffffffffffffffffffffffffff168373ffffffffffffffffffffffffffffffffffffffff16036119fb577f00000000000000000000000000000000000000000000000000000000000000007f000000000000000000000000000000000000000000000000000000000000000091509150611a2d565b6040517fe6c4247b00000000000000000000000000000000000000000000000000000000815260040160405180910390fd5b915091565b6000806002600184611a449190612051565b611a4e9190611f42565b90508291505b81811015611a89578091506002818285611a6e9190611f42565b611a789190612051565b611a829190611f42565b9050611a54565b50919050565b6001600081905550565b611aa1611be6565b73ffffffffffffffffffffffffffffffffffffffff16611abf610d1b565b73ffffffffffffffffffffffffffffffffffffffff1614611b1e57611ae2611be6565b6040517f118cdaa7000000000000000000000000000000000000000000000000000000008152600401611b159190611da3565b60405180910390fd5b565b6000600160009054906101000a900473ffffffffffffffffffffffffffffffffffffffff16905081600160006101000a81548173ffffffffffffffffffffffffffffffffffffffff021916908373ffffffffffffffffffffffffffffffffffffffff1602179055508173ffffffffffffffffffffffffffffffffffffffff168173ffffffffffffffffffffffffffffffffffffffff167f8be0079c531659141344cd1fd0a4f28419497f9722a3daafe3b4186f6b6457e060405160405180910390a35050565b600033905090565b600080fd5b600073ffffffffffffffffffffffffffffffffffffffff82169050919050565b6000611c1e82611bf3565b9050919050565b611c2e81611c13565b8114611c3957600080fd5b50565b600081359050611c4b81611c25565b92915050565b6000819050919050565b611c6481611c51565b8114611c6f57600080fd5b50565b600081359050611c8181611c5b565b92915050565b60008060408385031215611c9e57611c9d611bee565b5b6000611cac85828601611c3c565b9250506020611cbd85828601611c72565b9150509250929050565b611cd081611c51565b82525050565b6000604082019050611ceb6000830185611cc7565b611cf86020830184611cc7565b9392505050565b6000602082019050611d146000830184611cc7565b92915050565b6000819050919050565b6000611d3f611d3a611d3584611bf3565b611d1a565b611bf3565b9050919050565b6000611d5182611d24565b9050919050565b6000611d6382611d46565b9050919050565b611d7381611d58565b82525050565b6000602082019050611d8e6000830184611d6a565b92915050565b611d9d81611c13565b82525050565b6000602082019050611db86000830184611d94565b92915050565b600060208284031215611dd457611dd3611bee565b5b6000611de284828501611c72565b91505092915050565b600080600060608486031215611e0457611e03611bee565b5b6000611e1286828701611c3c565b9350506020611e2386828701611c72565b9250506040611e3486828701611c72565b9150509250925092565b600060208284031215611e5457611e53611bee565b5b6000611e6284828501611c3c565b91505092915050565b6000606082019050611e806000830186611cc7565b611e8d6020830185611cc7565b611e9a6040830184611cc7565b949350505050565b7f4e487b7100000000000000000000000000000000000000000000000000000000600052601160045260246000fd5b6000611edc82611c51565b9150611ee783611c51565b9250828202611ef581611c51565b91508282048414831517611f0c57611f0b611ea2565b5b5092915050565b7f4e487b7100000000000000000000000000000000000000000000000000000000600052601260045260246000fd5b6000611f4d82611c51565b9150611f5883611c51565b925082611f6857611f67611f13565b5b828204905092915050565b600081519050611f8281611c5b565b92915050565b600060208284031215611f9e57611f9d611bee565b5b6000611fac84828501611f73565b91505092915050565b6000606082019050611fca6000830186611d94565b611fd76020830185611d94565b611fe46040830184611cc7565b949350505050565b60008115159050919050565b61200181611fec565b811461200c57600080fd5b50565b60008151905061201e81611ff8565b92915050565b60006020828403121561203a57612039611bee565b5b60006120488482850161200f565b91505092915050565b600061205c82611c51565b915061206783611c51565b925082820190508082111561207f5761207e611ea2565b5b92915050565b600061209082611c51565b915061209b83611c51565b92508282039050818111156120b3576120b2611ea2565b5b92915050565b60006040820190506120ce6000830185611d94565b6120db6020830184611cc7565b939250505056fea26469706673582212209f0e1115cd73cdecee42b40fec37f933838d6041d683d6d090494db7f20a582264736f6c63430008180033",
  "linkReferences": {},
  "deployedLinkReferences": {}
}