{
  "_format": "hh-sol-artifact-1",
  "contractName": "Staking",
  "sourceName": "contracts/Staking.sol",
  "abi": [
    {
      "inputs": [
        {
          "internalType": "address",
          "name": "stakingToken",
          "type": "address"
        },
        {
          "internalType": "address",
          "name": "rewardToken",
          "type": "address"
        }
      ],
      "stateMutability": "nonpayable",
      "type": "constructor"
    },
    {
      "inputs": [],
      "name": "AmountMustBeGreaterThanZero",
      "type": "error"
    },
    {
      "inputs": [],
      "name": "AmountNotEnough",
      "type": "error"
    },
    {
      "inputs": [],
      "name": "EnforcedPause",
      "type": "error"
    },
    {
      "inputs": [],
      "name": "ExpectedPause",
      "type": "error"
    },
    {
      "inputs": [],
      "name": "InsufficientCollateral",
      "type": "error"
    },
    {
      "inputs": [],
      "name": "LoanNotRepaid",
      "type": "error"
    },
    {
      "inputs": [
        {
          "internalType": "address",
          "name": "owner",
          "type": "address"
        }
      ],
      "name": "OwnableInvalidOwner",
      "type": "error"
    },
    {
      "inputs": [
        {
          "internalType": "address",
          "name": "account",
          "type": "address"
        }
      ],
      "name": "OwnableUnauthorizedAccount",
      "type": "error"
    },
    {
      "inputs": [],
      "name": "ReentrancyGuardReentrantCall",
      "type": "error"
    },
    {
      "inputs": [],
      "name": "TransferFailed",
      "type": "error"
    },
    {
      "anonymous": false,
      "inputs": [
        {
          "indexed": true,
          "internalType": "address",
          "name": "user",
          "type": "address"
        },
        {
          "indexed": true,
          "internalType": "uint256",
          "name": "amount",
          "type": "uint256"
        }
      ],
      "name": "EmergencyWithdrawal",
      "type": "event"
    },
    {
      "anonymous": false,
      "inputs": [
        {
          "indexed": true,
          "internalType": "address",
          "name": "user",
          "type": "address"
        },
        {
          "indexed": true,
          "internalType": "uint256",
          "name": "amount",
          "type": "uint256"
        }
      ],
      "name": "LoanRepaid",
      "type": "event"
    },
    {
      "anonymous": false,
      "inputs": [
        {
          "indexed": true,
          "internalType": "address",
          "name": "user",
          "type": "address"
        },
        {
          "indexed": true,
          "internalType": "uint256",
          "name": "amount",
          "type": "uint256"
        }
      ],
      "name": "LoanTaken",
      "type": "event"
    },
    {
      "anonymous": false,
      "inputs": [
        {
          "indexed": true,
          "internalType": "address",
          "name": "previousOwner",
          "type": "address"
        },
        {
          "indexed": true,
          "internalType": "address",
          "name": "newOwner",
          "type": "address"
        }
      ],
      "name": "OwnershipTransferred",
      "type": "event"
    },
    {
      "anonymous": false,
      "inputs": [
        {
          "indexed": false,
          "internalType": "address",
          "name": "account",
          "type": "address"
        }
      ],
      "name": "Paused",
      "type": "event"
    },
    {
      "anonymous": false,
      "inputs": [
        {
          "indexed": false,
          "internalType": "uint256",
          "name": "newRewardRate",
          "type": "uint256"
        }
      ],
      "name": "RewardRateUpdated",
      "type": "event"
    },
    {
      "anonymous": false,
      "inputs": [
        {
          "indexed": true,
          "internalType": "address",
          "name": "user",
          "type": "address"
        },
        {
          "indexed": true,
          "internalType": "uint256",
          "name": "amount",
          "type": "uint256"
        }
      ],
      "name": "RewardsClaimed",
      "type": "event"
    },
    {
      "anonymous": false,
      "inputs": [
        {
          "indexed": true,
          "internalType": "address",
          "name": "user",
          "type": "address"
        },
        {
          "indexed": true,
          "internalType": "uint256",
          "name": "amount",
          "type": "uint256"
        }
      ],
      "name": "Staked",
      "type": "event"
    },
    {
      "anonymous": false,
      "inputs": [
        {
          "indexed": false,
          "internalType": "address",
          "name": "account",
          "type": "address"
        }
      ],
      "name": "Unpaused",
      "type": "event"
    },
    {
      "anonymous": false,
      "inputs": [
        {
          "indexed": true,
          "internalType": "address",
          "name": "user",
          "type": "address"
        },
        {
          "indexed": true,
          "internalType": "uint256",
          "name": "amount",
          "type": "uint256"
        }
      ],
      "name": "Withdrawn",
      "type": "event"
    },
    {
      "inputs": [
        {
          "internalType": "address",
          "name": "",
          "type": "address"
        }
      ],
      "name": "borrowedAmount",
      "outputs": [
        {
          "internalType": "uint256",
          "name": "",
          "type": "uint256"
        }
      ],
      "stateMutability": "view",
      "type": "function"
    },
    {
      "inputs": [
        {
          "internalType": "address",
          "name": "account",
          "type": "address"
        }
      ],
      "name": "borrowedBalanceOf",
      "outputs": [
        {
          "internalType": "uint256",
          "name": "",
          "type": "uint256"
        }
      ],
      "stateMutability": "view",
      "type": "function"
    },
    {
      "inputs": [
        {
          "internalType": "address",
          "name": "account",
          "type": "address"
        }
      ],
      "name": "calculateBorrowLimit",
      "outputs": [
        {
          "internalType": "uint256",
          "name": "",
          "type": "uint256"
        }
      ],
      "stateMutability": "view",
      "type": "function"
    },
    {
      "inputs": [
        {
          "internalType": "address",
          "name": "account",
          "type": "address"
        }
      ],
      "name": "calculateInterest",
      "outputs": [
        {
          "internalType": "uint256",
          "name": "",
          "type": "uint256"
        }
      ],
      "stateMutability": "view",
      "type": "function"
    },
    {
      "inputs": [
        {
          "internalType": "address",
          "name": "account",
          "type": "address"
        }
      ],
      "name": "calculateRepayAmount",
      "outputs": [
        {
          "internalType": "uint256",
          "name": "",
          "type": "uint256"
        }
      ],
      "stateMutability": "view",
      "type": "function"
    },
    {
      "inputs": [
        {
          "internalType": "address",
          "name": "account",
          "type": "address"
        }
      ],
      "name": "earned",
      "outputs": [
        {
          "internalType": "uint256",
          "name": "",
          "type": "uint256"
        }
      ],
      "stateMutability": "view",
      "type": "function"
    },
    {
      "inputs": [],
      "name": "getReward",
      "outputs": [],
      "stateMutability": "nonpayable",
      "type": "function"
    },
    {
      "inputs": [],
      "name": "interestRate",
      "outputs": [
        {
          "internalType": "uint256",
          "name": "",
          "type": "uint256"
        }
      ],
      "stateMutability": "view",
      "type": "function"
    },
    {
      "inputs": [],
      "name": "lastUpdateTime",
      "outputs": [
        {
          "internalType": "uint256",
          "name": "",
          "type": "uint256"
        }
      ],
      "stateMutability": "view",
      "type": "function"
    },
    {
      "inputs": [
        {
          "internalType": "address",
          "name": "",
          "type": "address"
        }
      ],
      "name": "loanStartTime",
      "outputs": [
        {
          "internalType": "uint256",
          "name": "",
          "type": "uint256"
        }
      ],
      "stateMutability": "view",
      "type": "function"
    },
    {
      "inputs": [],
      "name": "owner",
      "outputs": [
        {
          "internalType": "address",
          "name": "",
          "type": "address"
        }
      ],
      "stateMutability": "view",
      "type": "function"
    },
    {
      "inputs": [],
      "name": "pause",
      "outputs": [],
      "stateMutability": "nonpayable",
      "type": "function"
    },
    {
      "inputs": [],
      "name": "paused",
      "outputs": [
        {
          "internalType": "bool",
          "name": "",
          "type": "bool"
        }
      ],
      "stateMutability": "view",
      "type": "function"
    },
    {
      "inputs": [],
      "name": "renounceOwnership",
      "outputs": [],
      "stateMutability": "nonpayable",
      "type": "function"
    },
    {
      "inputs": [
        {
          "internalType": "uint256",
          "name": "amount",
          "type": "uint256"
        }
      ],
      "name": "repayLoan",
      "outputs": [],
      "stateMutability": "nonpayable",
      "type": "function"
    },
    {
      "inputs": [],
      "name": "rewardPerToken",
      "outputs": [
        {
          "internalType": "uint256",
          "name": "",
          "type": "uint256"
        }
      ],
      "stateMutability": "view",
      "type": "function"
    },
    {
      "inputs": [],
      "name": "rewardPerTokenStored",
      "outputs": [
        {
          "internalType": "uint256",
          "name": "",
          "type": "uint256"
        }
      ],
      "stateMutability": "view",
      "type": "function"
    },
    {
      "inputs": [],
      "name": "rewardRate",
      "outputs": [
        {
          "internalType": "uint256",
          "name": "",
          "type": "uint256"
        }
      ],
      "stateMutability": "view",
      "type": "function"
    },
    {
      "inputs": [
        {
          "internalType": "address",
          "name": "",
          "type": "address"
        }
      ],
      "name": "rewards",
      "outputs": [
        {
          "internalType": "uint256",
          "name": "",
          "type": "uint256"
        }
      ],
      "stateMutability": "view",
      "type": "function"
    },
    {
      "inputs": [],
      "name": "s_rewardToken",
      "outputs": [
        {
          "internalType": "contract IERC20",
          "name": "",
          "type": "address"
        }
      ],
      "stateMutability": "view",
      "type": "function"
    },
    {
      "inputs": [],
      "name": "s_stakingToken",
      "outputs": [
        {
          "internalType": "contract IERC20",
          "name": "",
          "type": "address"
        }
      ],
      "stateMutability": "view",
      "type": "function"
    },
    {
      "inputs": [
        {
          "internalType": "uint256",
          "name": "_interestRate",
          "type": "uint256"
        }
      ],
      "name": "setInterestRate",
      "outputs": [],
      "stateMutability": "nonpayable",
      "type": "function"
    },
    {
      "inputs": [
        {
          "internalType": "uint256",
          "name": "_rewardRate",
          "type": "uint256"
        }
      ],
      "name": "setRewardRate",
      "outputs": [],
      "stateMutability": "nonpayable",
      "type": "function"
    },
    {
      "inputs": [
        {
          "internalType": "uint256",
          "name": "amount",
          "type": "uint256"
        }
      ],
      "name": "stake",
      "outputs": [],
      "stateMutability": "nonpayable",
      "type": "function"
    },
    {
      "inputs": [
        {
          "internalType": "address",
          "name": "",
          "type": "address"
        }
      ],
      "name": "stakedBalance",
      "outputs": [
        {
          "internalType": "uint256",
          "name": "",
          "type": "uint256"
        }
      ],
      "stateMutability": "view",
      "type": "function"
    },
    {
      "inputs": [
        {
          "internalType": "uint256",
          "name": "amount",
          "type": "uint256"
        }
      ],
      "name": "takeLoan",
      "outputs": [],
      "stateMutability": "nonpayable",
      "type": "function"
    },
    {
      "inputs": [],
      "name": "totalBorrowedAmount",
      "outputs": [
        {
          "internalType": "uint256",
          "name": "",
          "type": "uint256"
        }
      ],
      "stateMutability": "view",
      "type": "function"
    },
    {
      "inputs": [],
      "name": "totalStakedTokens",
      "outputs": [
        {
          "internalType": "uint256",
          "name": "",
          "type": "uint256"
        }
      ],
      "stateMutability": "view",
      "type": "function"
    },
    {
      "inputs": [
        {
          "internalType": "address",
          "name": "newOwner",
          "type": "address"
        }
      ],
      "name": "transferOwnership",
      "outputs": [],
      "stateMutability": "nonpayable",
      "type": "function"
    },
    {
      "inputs": [],
      "name": "unpause",
      "outputs": [],
      "stateMutability": "nonpayable",
      "type": "function"
    },
    {
      "inputs": [
        {
          "internalType": "address",
          "name": "",
          "type": "address"
        }
      ],
      "name": "userRewardPerTokenPaid",
      "outputs": [
        {
          "internalType": "uint256",
          "name": "",
          "type": "uint256"
        }
      ],
      "stateMutability": "view",
      "type": "function"
    },
    {
      "inputs": [
        {
          "internalType": "uint256",
          "name": "amount",
          "type": "uint256"
        }
      ],
      "name": "withdrawStakedTokens",
      "outputs": [],
      "stateMutability": "nonpayable",
      "type": "function"
    }
  ],
  "bytecode": "0x60806040523480156200001157600080fd5b50604051620026c6380380620026c68339818101604052810190620000379190620002b0565b336001600081905550600073ffffffffffffffffffffffffffffffffffffffff168173ffffffffffffffffffffffffffffffffffffffff1603620000b55760006040517f1e4fbdf7000000000000000000000000000000000000000000000000000000008152600401620000ac919062000308565b60405180910390fd5b620000c6816200018060201b60201c565b506000600160146101000a81548160ff02191690831515021790555081600260006101000a81548173ffffffffffffffffffffffffffffffffffffffff021916908373ffffffffffffffffffffffffffffffffffffffff16021790555080600360006101000a81548173ffffffffffffffffffffffffffffffffffffffff021916908373ffffffffffffffffffffffffffffffffffffffff1602179055506402540be4006004819055506005600981905550505062000325565b6000600160009054906101000a900473ffffffffffffffffffffffffffffffffffffffff16905081600160006101000a81548173ffffffffffffffffffffffffffffffffffffffff021916908373ffffffffffffffffffffffffffffffffffffffff1602179055508173ffffffffffffffffffffffffffffffffffffffff168173ffffffffffffffffffffffffffffffffffffffff167f8be0079c531659141344cd1fd0a4f28419497f9722a3daafe3b4186f6b6457e060405160405180910390a35050565b600080fd5b600073ffffffffffffffffffffffffffffffffffffffff82169050919050565b600062000278826200024b565b9050919050565b6200028a816200026b565b81146200029657600080fd5b50565b600081519050620002aa816200027f565b92915050565b60008060408385031215620002ca57620002c962000246565b5b6000620002da8582860162000299565b9250506020620002ed8582860162000299565b9150509250929050565b62000302816200026b565b82525050565b60006020820190506200031f6000830184620002f7565b92915050565b61239180620003356000396000f3fe608060405234801561001057600080fd5b50600436106101ef5760003560e01c80638b8763471161010f578063c8f33c91116100a2578063e11932cf11610071578063e11932cf1461055e578063f2fde38b1461058e578063f5b5f477146105aa578063fe2b612d146105da576101ef565b8063c8f33c91146104e6578063cd3daf9d14610504578063d74acb6e14610522578063df136d6514610540576101ef565b80639e447fc6116100de5780639e447fc614610474578063a694fc3a14610490578063ab7b1c89146104ac578063adca9b72146104c8576101ef565b80638b876347146103da5780638c803fc21461040a5780638da5cb5b14610426578063948adb8f14610444576101ef565b80635f84f30211610187578063715018a611610156578063715018a61461038a5780637b0a47ee146103945780637c3a00fd146103b25780638456cb59146103d0576101ef565b80635f84f302146102f0578063602172671461030c57806360c634ee1461033c5780636374cc001461036c576101ef565b80633ae73259116101c35780633ae73259146102a05780633d18b912146102be5780633f4ba83a146102c85780635c975abb146102d2576101ef565b80628cc262146101f45780630700037d1461022457806307e024c2146102545780630a57336a14610284575b600080fd5b61020e60048036038101906102099190611f58565b61060a565b60405161021b9190611f9e565b60405180910390f35b61023e60048036038101906102399190611f58565b61075b565b60405161024b9190611f9e565b60405180910390f35b61026e60048036038101906102699190611f58565b610773565b60405161027b9190611f9e565b60405180910390f35b61029e60048036038101906102999190611fe5565b610870565b005b6102a8610bef565b6040516102b59190611f9e565b60405180910390f35b6102c6610bf5565b005b6102d0610f16565b005b6102da610f28565b6040516102e7919061202d565b60405180910390f35b61030a60048036038101906103059190611fe5565b610f3f565b005b61032660048036038101906103219190611f58565b610f51565b6040516103339190611f9e565b60405180910390f35b61035660048036038101906103519190611f58565b610f69565b6040516103639190611f9e565b60405180910390f35b610374610fb2565b60405161038191906120a7565b60405180910390f35b610392610fd8565b005b61039c610fec565b6040516103a99190611f9e565b60405180910390f35b6103ba610ff2565b6040516103c79190611f9e565b60405180910390f35b6103d8610ff8565b005b6103f460048036038101906103ef9190611f58565b61100a565b6040516104019190611f9e565b60405180910390f35b610424600480360381019061041f9190611fe5565b611022565b005b61042e611354565b60405161043b91906120d1565b60405180910390f35b61045e60048036038101906104599190611f58565b61137e565b60405161046b9190611f9e565b60405180910390f35b61048e60048036038101906104899190611fe5565b611396565b005b6104aa60048036038101906104a59190611fe5565b6113df565b005b6104c660048036038101906104c19190611fe5565b61166e565b005b6104d0611976565b6040516104dd91906120a7565b60405180910390f35b6104ee61199c565b6040516104fb9190611f9e565b60405180910390f35b61050c6119a2565b6040516105199190611f9e565b60405180910390f35b61052a611a11565b6040516105379190611f9e565b60405180910390f35b610548611a17565b6040516105559190611f9e565b60405180910390f35b61057860048036038101906105739190611f58565b611a1d565b6040516105859190611f9e565b60405180910390f35b6105a860048036038101906105a39190611f58565b611b0b565b005b6105c460048036038101906105bf9190611f58565b611b91565b6040516105d19190611f9e565b60405180910390f35b6105f460048036038101906105ef9190611f58565b611ba9565b6040516106019190611f9e565b60405180910390f35b600080600d60008473ffffffffffffffffffffffffffffffffffffffff1673ffffffffffffffffffffffffffffffffffffffff16815260200190815260200160002054600a60008573ffffffffffffffffffffffffffffffffffffffff1673ffffffffffffffffffffffffffffffffffffffff16815260200190815260200160002054610697919061211b565b9050600b60008473ffffffffffffffffffffffffffffffffffffffff1673ffffffffffffffffffffffffffffffffffffffff16815260200190815260200160002054670de0b6b3a7640000600c60008673ffffffffffffffffffffffffffffffffffffffff1673ffffffffffffffffffffffffffffffffffffffff1681526020019081526020016000205461072a6119a2565b610734919061211b565b8361073f919061214f565b61074991906121c0565b61075391906121f1565b915050919050565b600b6020528060005260406000206000915090505481565b600080600d60003373ffffffffffffffffffffffffffffffffffffffff1673ffffffffffffffffffffffffffffffffffffffff16815260200190815260200160002054118061080257506000600a60008473ffffffffffffffffffffffffffffffffffffffff1673ffffffffffffffffffffffffffffffffffffffff1681526020019081526020016000205411155b15610810576000905061086b565b60646050600a60008573ffffffffffffffffffffffffffffffffffffffff1673ffffffffffffffffffffffffffffffffffffffff1681526020019081526020016000205461085e919061214f565b61086891906121c0565b90505b919050565b610878611c0a565b610880611c50565b336108896119a2565b6007819055504260088190555061089f8161060a565b600b60008373ffffffffffffffffffffffffffffffffffffffff1673ffffffffffffffffffffffffffffffffffffffff16815260200190815260200160002081905550600754600c60008373ffffffffffffffffffffffffffffffffffffffff1673ffffffffffffffffffffffffffffffffffffffff1681526020019081526020016000208190555060008211610962576040517f5e85ae7300000000000000000000000000000000000000000000000000000000815260040160405180910390fd5b81600a60003373ffffffffffffffffffffffffffffffffffffffff1673ffffffffffffffffffffffffffffffffffffffff1681526020019081526020016000205410156109db576040517fcb6e851c00000000000000000000000000000000000000000000000000000000815260040160405180910390fd5b6000600d60003373ffffffffffffffffffffffffffffffffffffffff1673ffffffffffffffffffffffffffffffffffffffff168152602001908152602001600020541115610a54576040517eb7b97e00000000000000000000000000000000000000000000000000000000815260040160405180910390fd5b8160056000828254610a66919061211b565b9250508190555081600a60003373ffffffffffffffffffffffffffffffffffffffff1673ffffffffffffffffffffffffffffffffffffffff1681526020019081526020016000206000828254610abc919061211b565b92505081905550813373ffffffffffffffffffffffffffffffffffffffff167f7084f5476618d8e60b11ef0d7d3f06914655adb8793e28ff7f018d4c76d505d560405160405180910390a36000600260009054906101000a900473ffffffffffffffffffffffffffffffffffffffff1673ffffffffffffffffffffffffffffffffffffffff1663a9059cbb33856040518363ffffffff1660e01b8152600401610b66929190612225565b6020604051808303816000875af1158015610b85573d6000803e3d6000fd5b505050506040513d601f19601f82011682018060405250810190610ba9919061227a565b905080610be2576040517f90b8ec1800000000000000000000000000000000000000000000000000000000815260040160405180910390fd5b5050610bec611c91565b50565b60055481565b610bfd611c0a565b610c05611c50565b33610c0e6119a2565b60078190555042600881905550610c248161060a565b600b60008373ffffffffffffffffffffffffffffffffffffffff1673ffffffffffffffffffffffffffffffffffffffff16815260200190815260200160002081905550600754600c60008373ffffffffffffffffffffffffffffffffffffffff1673ffffffffffffffffffffffffffffffffffffffff168152602001908152602001600020819055506000600d60003373ffffffffffffffffffffffffffffffffffffffff1673ffffffffffffffffffffffffffffffffffffffff168152602001908152602001600020541115610d26576040517eb7b97e00000000000000000000000000000000000000000000000000000000815260040160405180910390fd5b6000600b60003373ffffffffffffffffffffffffffffffffffffffff1673ffffffffffffffffffffffffffffffffffffffff1681526020019081526020016000205490506000811015610da5576040517fcb6e851c00000000000000000000000000000000000000000000000000000000815260040160405180910390fd5b6000600b60003373ffffffffffffffffffffffffffffffffffffffff1673ffffffffffffffffffffffffffffffffffffffff16815260200190815260200160002081905550803373ffffffffffffffffffffffffffffffffffffffff167ffc30cddea38e2bf4d6ea7d3f9ed3b6ad7f176419f4963bd81318067a4aee73fe60405160405180910390a36000600360009054906101000a900473ffffffffffffffffffffffffffffffffffffffff1673ffffffffffffffffffffffffffffffffffffffff1663a9059cbb33846040518363ffffffff1660e01b8152600401610e8d929190612225565b6020604051808303816000875af1158015610eac573d6000803e3d6000fd5b505050506040513d601f19601f82011682018060405250810190610ed0919061227a565b905080610f09576040517f90b8ec1800000000000000000000000000000000000000000000000000000000815260040160405180910390fd5b505050610f14611c91565b565b610f1e611c9b565b610f26611d22565b565b6000600160149054906101000a900460ff16905090565b610f47611c9b565b8060098190555050565b600a6020528060005260406000206000915090505481565b6000600d60008373ffffffffffffffffffffffffffffffffffffffff1673ffffffffffffffffffffffffffffffffffffffff168152602001908152602001600020549050919050565b600360009054906101000a900473ffffffffffffffffffffffffffffffffffffffff1681565b610fe0611c9b565b610fea6000611d85565b565b60045481565b60095481565b611000611c9b565b611008611e4b565b565b600c6020528060005260406000206000915090505481565b61102a611c0a565b611032611c50565b6000811161106c576040517f5e85ae7300000000000000000000000000000000000000000000000000000000815260040160405180910390fd5b6000600d60003373ffffffffffffffffffffffffffffffffffffffff1673ffffffffffffffffffffffffffffffffffffffff1681526020019081526020016000205411156110e5576040517eb7b97e00000000000000000000000000000000000000000000000000000000815260040160405180910390fd5b8060646050600a60003373ffffffffffffffffffffffffffffffffffffffff1673ffffffffffffffffffffffffffffffffffffffff16815260200190815260200160002054611134919061214f565b61113e91906121c0565b1015611176576040517f3a23d82500000000000000000000000000000000000000000000000000000000815260040160405180910390fd5b80600d60003373ffffffffffffffffffffffffffffffffffffffff1673ffffffffffffffffffffffffffffffffffffffff16815260200190815260200160002060008282546111c591906121f1565b9250508190555042600e60003373ffffffffffffffffffffffffffffffffffffffff1673ffffffffffffffffffffffffffffffffffffffff16815260200190815260200160002081905550806006600082825461122291906121f1565b92505081905550803373ffffffffffffffffffffffffffffffffffffffff167fd5c776eab9418d89c040ffee59f2310d225f5ff682191bcee59b0413a7fd483560405160405180910390a36000600360009054906101000a900473ffffffffffffffffffffffffffffffffffffffff1673ffffffffffffffffffffffffffffffffffffffff1663a9059cbb33846040518363ffffffff1660e01b81526004016112cc929190612225565b6020604051808303816000875af11580156112eb573d6000803e3d6000fd5b505050506040513d601f19601f8201168201806040525081019061130f919061227a565b905080611348576040517f90b8ec1800000000000000000000000000000000000000000000000000000000815260040160405180910390fd5b50611351611c91565b50565b6000600160009054906101000a900473ffffffffffffffffffffffffffffffffffffffff16905090565b600d6020528060005260406000206000915090505481565b61139e611c9b565b806004819055507f41d466ebd06fb97e7786086ac8b69b7eb7da798592036251291d34e9791cde01816040516113d49190611f9e565b60405180910390a150565b6113e7611c0a565b6113ef611c50565b336113f86119a2565b6007819055504260088190555061140e8161060a565b600b60008373ffffffffffffffffffffffffffffffffffffffff1673ffffffffffffffffffffffffffffffffffffffff16815260200190815260200160002081905550600754600c60008373ffffffffffffffffffffffffffffffffffffffff1673ffffffffffffffffffffffffffffffffffffffff16815260200190815260200160002081905550600082116114d1576040517f5e85ae7300000000000000000000000000000000000000000000000000000000815260040160405180910390fd5b81600560008282546114e391906121f1565b9250508190555081600a60003373ffffffffffffffffffffffffffffffffffffffff1673ffffffffffffffffffffffffffffffffffffffff168152602001908152602001600020600082825461153991906121f1565b92505081905550813373ffffffffffffffffffffffffffffffffffffffff167f9e71bc8eea02a63969f509818f2dafb9254532904319f9dbda79b67bd34a5f3d60405160405180910390a36000600260009054906101000a900473ffffffffffffffffffffffffffffffffffffffff1673ffffffffffffffffffffffffffffffffffffffff166323b872dd3330866040518463ffffffff1660e01b81526004016115e5939291906122a7565b6020604051808303816000875af1158015611604573d6000803e3d6000fd5b505050506040513d601f19601f82011682018060405250810190611628919061227a565b905080611661576040517f90b8ec1800000000000000000000000000000000000000000000000000000000815260040160405180910390fd5b505061166b611c91565b50565b611676611c0a565b61167e611c50565b600081116116b8576040517f5e85ae7300000000000000000000000000000000000000000000000000000000815260040160405180910390fd5b80600d60003373ffffffffffffffffffffffffffffffffffffffff1673ffffffffffffffffffffffffffffffffffffffff168152602001908152602001600020541015611731576040517fcb6e851c00000000000000000000000000000000000000000000000000000000815260040160405180910390fd5b600061173c33611a1d565b9050600360009054906101000a900473ffffffffffffffffffffffffffffffffffffffff1673ffffffffffffffffffffffffffffffffffffffff166323b872dd3330848661178a91906121f1565b6040518463ffffffff1660e01b81526004016117a8939291906122a7565b6020604051808303816000875af11580156117c7573d6000803e3d6000fd5b505050506040513d601f19601f820116820180604052508101906117eb919061227a565b61182a576040517f08c379a00000000000000000000000000000000000000000000000000000000081526004016118219061233b565b60405180910390fd5b81600d60003373ffffffffffffffffffffffffffffffffffffffff1673ffffffffffffffffffffffffffffffffffffffff1681526020019081526020016000206000828254611879919061211b565b925050819055508160066000828254611892919061211b565b925050819055506000600d60003373ffffffffffffffffffffffffffffffffffffffff1673ffffffffffffffffffffffffffffffffffffffff1681526020019081526020016000205403611926576000600e60003373ffffffffffffffffffffffffffffffffffffffff1673ffffffffffffffffffffffffffffffffffffffff168152602001908152602001600020819055505b813373ffffffffffffffffffffffffffffffffffffffff167fc200a1f31dd659e356e0f112c82558e25f49f7b0f84438691cd96f5cb355882360405160405180910390a350611973611c91565b50565b600260009054906101000a900473ffffffffffffffffffffffffffffffffffffffff1681565b60085481565b600080600554036119b7576007549050611a0e565b6000600854426119c7919061211b565b90506000816004546119d9919061214f565b9050600554670de0b6b3a7640000826119f2919061214f565b6119fc91906121c0565b600754611a0991906121f1565b925050505b90565b60065481565b60075481565b600080601480600e60008673ffffffffffffffffffffffffffffffffffffffff1673ffffffffffffffffffffffffffffffffffffffff1681526020019081526020016000205442611a6e919061211b565b611a7891906121c0565b611a82919061214f565b905060006064600954600d60008773ffffffffffffffffffffffffffffffffffffffff1673ffffffffffffffffffffffffffffffffffffffff16815260200190815260200160002054611ad5919061214f565b611adf91906121c0565b905060006301e133808383611af4919061214f565b611afe91906121c0565b9050809350505050919050565b611b13611c9b565b600073ffffffffffffffffffffffffffffffffffffffff168173ffffffffffffffffffffffffffffffffffffffff1603611b855760006040517f1e4fbdf7000000000000000000000000000000000000000000000000000000008152600401611b7c91906120d1565b60405180910390fd5b611b8e81611d85565b50565b600e6020528060005260406000206000915090505481565b600080611bb583611a1d565b905080600d60008573ffffffffffffffffffffffffffffffffffffffff1673ffffffffffffffffffffffffffffffffffffffff16815260200190815260200160002054611c0291906121f1565b915050919050565b600260005403611c46576040517f3ee5aeb500000000000000000000000000000000000000000000000000000000815260040160405180910390fd5b6002600081905550565b611c58610f28565b15611c8f576040517fd93c066500000000000000000000000000000000000000000000000000000000815260040160405180910390fd5b565b6001600081905550565b611ca3611ead565b73ffffffffffffffffffffffffffffffffffffffff16611cc1611354565b73ffffffffffffffffffffffffffffffffffffffff1614611d2057611ce4611ead565b6040517f118cdaa7000000000000000000000000000000000000000000000000000000008152600401611d1791906120d1565b60405180910390fd5b565b611d2a611eb5565b6000600160146101000a81548160ff0219169083151502179055507f5db9ee0a495bf2e6ff9c91a7834c1ba4fdd244a5e8aa4e537bd38aeae4b073aa611d6e611ead565b604051611d7b91906120d1565b60405180910390a1565b6000600160009054906101000a900473ffffffffffffffffffffffffffffffffffffffff16905081600160006101000a81548173ffffffffffffffffffffffffffffffffffffffff021916908373ffffffffffffffffffffffffffffffffffffffff1602179055508173ffffffffffffffffffffffffffffffffffffffff168173ffffffffffffffffffffffffffffffffffffffff167f8be0079c531659141344cd1fd0a4f28419497f9722a3daafe3b4186f6b6457e060405160405180910390a35050565b611e53611c50565b60018060146101000a81548160ff0219169083151502179055507f62e78cea01bee320cd4e420270b5ea74000d11b0c9f74754ebdbfc544b05a258611e96611ead565b604051611ea391906120d1565b60405180910390a1565b600033905090565b611ebd610f28565b611ef3576040517f8dfc202b00000000000000000000000000000000000000000000000000000000815260040160405180910390fd5b565b600080fd5b600073ffffffffffffffffffffffffffffffffffffffff82169050919050565b6000611f2582611efa565b9050919050565b611f3581611f1a565b8114611f4057600080fd5b50565b600081359050611f5281611f2c565b92915050565b600060208284031215611f6e57611f6d611ef5565b5b6000611f7c84828501611f43565b91505092915050565b6000819050919050565b611f9881611f85565b82525050565b6000602082019050611fb36000830184611f8f565b92915050565b611fc281611f85565b8114611fcd57600080fd5b50565b600081359050611fdf81611fb9565b92915050565b600060208284031215611ffb57611ffa611ef5565b5b600061200984828501611fd0565b91505092915050565b60008115159050919050565b61202781612012565b82525050565b6000602082019050612042600083018461201e565b92915050565b6000819050919050565b600061206d61206861206384611efa565b612048565b611efa565b9050919050565b600061207f82612052565b9050919050565b600061209182612074565b9050919050565b6120a181612086565b82525050565b60006020820190506120bc6000830184612098565b92915050565b6120cb81611f1a565b82525050565b60006020820190506120e660008301846120c2565b92915050565b7f4e487b7100000000000000000000000000000000000000000000000000000000600052601160045260246000fd5b600061212682611f85565b915061213183611f85565b9250828203905081811115612149576121486120ec565b5b92915050565b600061215a82611f85565b915061216583611f85565b925082820261217381611f85565b9150828204841483151761218a576121896120ec565b5b5092915050565b7f4e487b7100000000000000000000000000000000000000000000000000000000600052601260045260246000fd5b60006121cb82611f85565b91506121d683611f85565b9250826121e6576121e5612191565b5b828204905092915050565b60006121fc82611f85565b915061220783611f85565b925082820190508082111561221f5761221e6120ec565b5b92915050565b600060408201905061223a60008301856120c2565b6122476020830184611f8f565b9392505050565b61225781612012565b811461226257600080fd5b50565b6000815190506122748161224e565b92915050565b6000602082840312156122905761228f611ef5565b5b600061229e84828501612265565b91505092915050565b60006060820190506122bc60008301866120c2565b6122c960208301856120c2565b6122d66040830184611f8f565b949350505050565b600082825260208201905092915050565b7f5472616e73666572206661696c65640000000000000000000000000000000000600082015250565b6000612325600f836122de565b9150612330826122ef565b602082019050919050565b6000602082019050818103600083015261235481612318565b905091905056fea2646970667358221220beb0eec5c01dbc361d414ccaeb64eac46a1b80c5cf6a4eba7fe6a0acf24c1fac64736f6c63430008180033",
  "linkReferences": {},
  "deployedLinkReferences": {}
}